:020000040800F2
:1000000000500020F91500082D14000833140008D2
:10001000391400083F1400084514000800000000CF
:1000200000000000000000000000000091850008B2
:100030004B1400080000000071870008B987000811
:100040004116000841160008411600084116000834
:100050004116000841160008411600084116000824
:100060004116000841160008411600084116000814
:100070004116000841160008411600084116000804
:1000800041160008411600084116000841160008F4
:1000900041160008411600084116000841160008E4
:1000A00041160008591400084116000841160008BE
:1000B00041160008411600084116000841160008C4
:1000C00041160008411600084116000841160008B4
:1000D0004116000841160008951600084116000850
:1000E00041160008411600084116000800000000F3
:1000F0000000000000000000000000000000000000
:0C01000000000000000000005FF808F1A3
:1001100010B5054C237833B9044B13B10448AFF341
:1001200000800123237010BD880200200000000021
:1001300004D8000808B5034B1BB103490348AFF3CB
:10014000008008BD000000008C02002004D80008D8
:10015000034613F8012B002AFBD1181A0138704707
:1001600081F0004102E000BF83F0004330B54FEA68
:1001700041044FEA430594EA050F08BF90EA020FD5
:100180001FBF54EA000C55EA020C7FEA645C7FEA68
:10019000655C00F0E2804FEA5454D4EB5555B8BF8B
:1001A0006D420CDD2C4480EA020281EA030382EAFC
:1001B000000083EA010180EA020281EA0303362D8E
:1001C00088BF30BD11F0004F4FEA01314FF4801C61
:1001D0004CEA113102D0404261EB410113F0004F73
:1001E0004FEA03334CEA133302D0524263EB43032A
:1001F00094EA050F00F0A780A4F10104D5F1200EC8
:100200000DDB02FA0EFC22FA05F2801841F1000122
:1002100003FA0EF2801843FA05F359410EE0A5F1F6
:1002200020050EF1200E012A03FA0EFC28BF4CF027
:10023000020C43FA05F3C01851EBE37101F00045DD
:1002400007D54FF0000EDCF1000C7EEB00006EEBEA
:100250000101B1F5801F1BD3B1F5001F0CD3490874
:100260005FEA30004FEA3C0C04F101044FEA4452CB
:1002700012F5800F80F09A80BCF1004F08BF5FEA52
:10028000500C50F1000041EB045141EA050130BD32
:100290005FEA4C0C404141EB0101013C28BFB1F544
:1002A000801FE9D291F0000F04BF01460020B1FA8F
:1002B00081F308BF2033A3F10B03B3F120020CDA62
:1002C0000C3208DD02F1140CC2F10C0201FA0CF040
:1002D00021FA02F10CE002F11402D8BFC2F1200CA5
:1002E00001FA02F120FA0CFCDCBF41EA0C0190405B
:1002F000E41AA2BF01EB0451294330BD6FEA0404A4
:100300001F3C1CDA0C340EDC04F11404C4F120028E
:1003100020FA04F001FA02F340EA030021FA04F3A0
:1003200045EA030130BDC4F10C04C4F1200220FAF7
:1003300002F001FA04F340EA0300294630BD21FA35
:1003400004F0294630BD94F0000F83F4801306BFFB
:1003500081F480110134013D4EE77FEA645C18BFEF
:100360007FEA655C29D094EA050F08BF90EA020F86
:1003700005D054EA000C04BF1946104630BD91EA7E
:10038000030F1EBF0021002030BD5FEA545C05D181
:100390004000494128BF41F0004130BD14F58004C0
:1003A0003CBF01F5801130BD01F0004545F0FE4134
:1003B00041F470014FF0000030BD7FEA645C1ABF69
:1003C000194610467FEA655C1CBF0B46024650EAA0
:1003D000013406BF52EA033591EA030F41F40021CC
:1003E00030BD00BF90F0000F04BF0021704730B552
:1003F0004FF4806404F132044FF000054FF0000127
:1004000050E700BF90F0000F04BF0021704730B5E7
:100410004FF4806404F1320410F0004548BF4042BC
:100420004FF000013EE700BF42004FEAE2014FEA11
:1004300031014FEA02701FBF12F07F4393F07F4FEC
:1004400081F06051704732F07F4208BF704793F0EF
:100450007F4F04BF41F40021704730B54FF4607402
:1004600001F0004521F000411CE700BF50EA010205
:1004700008BF704730B54FF000050AE050EA0102AE
:1004800008BF704730B511F0004502D5404261EB1E
:1004900041014FF4806404F132045FEA915C3FF45F
:1004A000D8AE4FF003025FEADC0C18BF03325FEAFC
:1004B000DC0C18BF033202EBDC02C2F1200300FAAD
:1004C00003FC20FA02F001FA03FE40EA0E0021FAD2
:1004D00002F11444BDE600BF70B54FF0FF0C4CF4C0
:1004E000E06C1CEA11541DBF1CEA135594EA0C0F72
:1004F00095EA0C0F00F0DEF82C4481EA030621EAAD
:100500004C5123EA4C5350EA013518BF52EA0335E7
:1005100041F4801143F4801338D0A0FB02CE4FF099
:100520000005E1FB02E506F00042E0FB03E54FF0C9
:100530000006E1FB03569CF0000F18BF4EF0010EC1
:10054000A4F1FF04B6F5007F64F5407404D25FEABD
:100550004E0E6D4146EB060642EAC62141EA555170
:100560004FEAC52040EA5E504FEACE2EB4F1FD0CB2
:1005700088BFBCF5E06F1ED8BEF1004F08BF5FEA30
:10058000500E50F1000041EB045170BD06F00046E2
:1005900046EA010140EA020081EA0301B4EB5C048F
:1005A000C2BFD4EB0C0541EA045170BD41F4801187
:1005B0004FF0000E013C00F3AB8014F1360FDEBFAC
:1005C000002001F0004170BDC4F10004203C35DA88
:1005D0000C341BDC04F11404C4F1200500FA05F30B
:1005E00020FA04F001FA05F240EA020001F00042AC
:1005F00021F0004110EBD37021FA04F642EB060122
:100600005EEA430E08BF20EAD37070BDC4F10C044B
:10061000C4F1200500FA04F320FA05F001FA04F20F
:1006200040EA020001F0004110EBD37041F10001FB
:100630005EEA430E08BF20EAD37070BDC4F1200506
:1006400000FA05F24EEA020E20FA04F301FA05F26E
:1006500043EA020321FA04F001F0004121FA04F216
:1006600020EA020000EBD3705EEA430E08BF20EAE6
:10067000D37070BD94F0000F0FD101F00046400020
:1006800041EB010111F4801F08BF013CF7D041EAA2
:10069000060195F0000F18BF704703F000465200A6
:1006A00043EB030313F4801F08BF013DF7D043EA77
:1006B0000603704794EA0C0F0CEA135518BF95EA2D
:1006C0000C0F0CD050EA410618BF52EA4306D1D1B4
:1006D00081EA030101F000414FF0000070BD50EAD3
:1006E000410606BF1046194652EA430619D094EA5D
:1006F0000C0F02D150EA013613D195EA0C0F05D147
:1007000052EA03361CBF104619460AD181EA03019A
:1007100001F0004141F0FE4141F470014FF0000052
:1007200070BD41F0FE4141F4780170BD70B54FF0ED
:10073000FF0C4CF4E06C1CEA11541DBF1CEA13556D
:1007400094EA0C0F95EA0C0F00F0A7F8A4EB05044F
:1007500081EA030E52EA03354FEA013100F0888046
:100760004FEA03334FF0805545EA131343EA12630F
:100770004FEA022245EA111545EA10654FEA0026C4
:100780000EF000419D4208BF964244F1FD0404F57D
:10079000407402D25B084FEA3202B61A65EB0305D9
:1007A0005B084FEA32024FF480104FF4002CB6EB96
:1007B000020E75EB030E22BFB61A754640EA0C0016
:1007C0005B084FEA3202B6EB020E75EB030E22BF56
:1007D000B61A754640EA5C005B084FEA3202B6EB97
:1007E000020E75EB030E22BFB61A754640EA9C0056
:1007F0005B084FEA3202B6EB020E75EB030E22BF26
:10080000B61A754640EADC0055EA060E18D04FEAE3
:10081000051545EA16754FEA06164FEAC30343EA83
:1008200052734FEAC2025FEA1C1CC0D111F4801F50
:100830000BD141EA00014FF000004FF0004CB6E749
:1008400011F4801F04BF01430020B4F1FD0C88BFE8
:10085000BCF5E06F3FF6AFAEB5EB030C04BFB6EBF3
:10086000020C5FEA500C50F1000041EB045170BDE6
:100870000EF0004E4EEA113114EB5C04C2BFD4EB13
:100880000C0541EA045170BD41F480114FF0000E97
:10089000013C90E645EA060E8DE60CEA135594EA13
:1008A0000C0F08BF95EA0C0F3FF43BAF94EA0C0F16
:1008B0000AD150EA01347FF434AF95EA0C0F7FF48B
:1008C00025AF104619462CE795EA0C0F06D152EADF
:1008D00003353FF4FDAE1046194622E750EA4106C3
:1008E00018BF52EA43067FF4C5AE50EA41047FF4D4
:1008F0000DAF52EA43057FF4EBAE12E74FF0FF3C39
:1009000006E000BF4FF0010C02E000BF4FF0010C09
:100910004DF804CD4FEA410C7FEA6C5C4FEA430C82
:1009200018BF7FEA6C5C1BD001B050EA410C0CBFD1
:1009300052EA430C91EA030F02BF90EA020F002033
:10094000704710F1000F91EA030F58BF994208BF9A
:1009500090422CBFD8176FEAE37040F00100704757
:100960004FEA410C7FEA6C5C02D150EA013C07D1AE
:100970004FEA430C7FEA6C5CD6D152EA033CD3D0F9
:100980005DF8040B704700BF8446104662468C46F3
:100990001946634600E000BF01B5FFF7B7FF002826
:1009A00048BF10F1000F01BD4DF808EDFFF7F4FF4F
:1009B0000CBF012000205DF808FB00BF4DF808EDDA
:1009C000FFF7EAFF34BF012000205DF808FB00BFFD
:1009D0004DF808EDFFF7E0FF94BF012000205DF81F
:1009E00008FB00BF4DF808EDFFF7CEFF94BF0120D4
:1009F00000205DF808FB00BF4DF808EDFFF7C4FFCD
:100A000034BF012000205DF808FB00BF4FEA410C15
:100A10007FEA6C5C02D150EA013C0AD14FEA430CF8
:100A20007FEA6C5C02D152EA033C02D14FF0000035
:100A300070474FF0010070474FEA410212F5001273
:100A400015D211D56FF47873B3EB625212D94FEA15
:100A5000C12343F0004343EA505311F0004F23FAFF
:100A600002F018BF404270474FF00000704750EA54
:100A7000013005D111F0004008BF6FF00040704711
:100A80004FF00000704700BF4A0011D212F500126B
:100A900011D20DD56FF47873B3EB62520ED44FEAD6
:100AA000C12343F0004343EA505323FA02F0704756
:100AB0004FF00000704750EA013002D14FF0FF3094
:100AC00070474FF0000070474FEA4102B2F1E04337
:100AD00024BFB3F5001CDCF1FE5C0DD901F0004C25
:100AE0004FEAC0024CEA5070B2F1004F40EB830075
:100AF00008BF20F00100704711F0804F21D113F1A1
:100B00003872BCBF01F00040704741F480114FEAD9
:100B10005252C2F11802C2F1200C10FA0CF320FA62
:100B200002F018BF40F001004FEAC1234FEAD3237F
:100B300003FA0CFC40EA0C0023FA02F34FEA4303E9
:100B4000CCE77FEA625307D150EA01331EBF4FF072
:100B5000FE4040F44000704701F0004040F0FE408D
:100B600040F40000704700BF38B505460C4600222F
:100B7000002328462146FFF721FF28B928462146B1
:100B8000BDE8384000F00AB8284604F1004100F002
:100B900005F8404261EB410138BD00BFD0B50022ED
:100BA0000B4B06460F46FFF797FCFFF76DFF044619
:100BB000FFF718FC0022074BFFF78EFC02460B469E
:100BC00030463946FFF7D0FAFFF75EFF2146D0BD29
:100BD0000000F03D0000F04180B500AF104A002158
:100BE000104805F077F803460F4A13600F4A0021BA
:100BF0000F4805F06FF803460E4A13600E4A0021B5
:100C00000E4805F067F803460D4A13600D4A0021AF
:100C10000D4805F05FF803460C4A136000BF80BD25
:100C2000A4DC0008510C0008B0020020C8DC000859
:100C3000310D0008B4020020ECDC00080D0E0008A5
:100C4000B802002010DD0008650E0008BC0200207C
:100C500080B584B002AF78602B4B1B68032B47D163
:100C6000294B00221A60294B1B68184606F01AFA15
:100C7000274B1B68184606F015FA264809F0CCF8F1
:100C800004F020FE012300931023234A00210020BA
:100C900004F014FF012300931023204A04210020B4
:100CA00004F00CFF1E4806F0C9F904F00BFE012306
:100CB00001931C4B0093042320220021002004F008
:100CC00046FF00230193174B009304237A2200214F
:100CD0005A2004F03CFF0D4B1B68184606F092FAB0
:100CE0000B4B1B68184606F08DFA0F4809F094F874
:100CF000054B1B6819460D4808F0F4FF4FF47A7055
:100D000006F09CF9A8E700BFA8020020B802002066
:100D1000BC02002050D8000868D8000878D8000825
:100D200020BF02003000002080D8000898D80008BA
:100D300080B586B002AF78602D4B1B68002B12D1B6
:100D40002B4B01221A6007F0B9FC05F09FF803460F
:100D5000284A1360274B1B68002B02D0264809F055
:100D60005BF807F0DBFC234B18684FF0FF33009370
:100D700000230122072105F0A3F80346FB601F4B67
:100D800000221A601E4809F047F804F09BFD012379
:100D9000009310231B4A0221022004F08FFE00233F
:100DA0000193194B009304237A2200215A2004F066
:100DB000CEFE4FF4FA6006F041F904F083FD012302
:100DC0000193114B0093042320220021002004F002
:100DD000BEFE002301930C4B009304237A220021D2
:100DE0005A2004F0B4FE642006F028F9A4E700BFFE
:100DF000AC020020A4020020A4D80008A802002011
:100E0000C0D80008CCD800083000002080B582B0DF
:100E100000AF786001F008F90346002B16D101F00D
:100E20008BF90346002B09D10A4B1B680221184697
:100E300005F014F9084808F0EFFF07E0074808F04C
:100E4000EBFF074B1B680133054A1360642006F073
:100E5000F5F8DFE7A4020020D4D80008E4D80008A1
:100E6000A802002080B584B000AF78600023FB604A
:100E700000F042FC0346002B30D11A491A4808F012
:100E800031FF1A4B1B881946194808F02BFF1949E6
:100E9000144809F0AAF80346002B09D0164808F0B8
:100EA000BBFF164B1B680121184605F0D7F813E06D
:100EB000FB68002B07D0124808F0AEFF114B1B68EF
:100EC0000133104A13601049064809F08EF80346B2
:100ED000002B01D00123FB6000F02EFC642006F003
:100EE000ADF8C5E7FC030020F0D800087C04002022
:100EF00000D9000810D9000814D90008A402002065
:100F000028D90008A802002034D9000880B588B08C
:100F100000AF07F1100300221A605A609A60DA608D
:100F2000354B9B69344A43F010039361324B9B6904
:100F300003F01003FB60FB682F4B9B692E4A43F0C4
:100F4000200393612C4B9B6903F02003BB60BB68BB
:100F5000294B9B69284A43F004039361264B9B6904
:100F600003F004037B607B68234B9B69224A43F0B8
:100F700008039361204B9B6903F008033B603B68C7
:100F8000012202211D4801F009FE00224FF44071A8
:100F90001B4801F003FE02233B6101237B61012317
:100FA000BB610323FB6107F110031946134801F0ED
:100FB00071FC4FF480733B6101237B610223BB61B1
:100FC0000323FB6107F1100319460D4801F062FC91
:100FD0004FF400733B6101237B610123BB61032359
:100FE000FB6107F110031946054801F053FC00BFEF
:100FF0002037BD4680BD00BF001002400008014000
:10100000000C014080B500AF124B134A1A60114B1F
:10101000124A5A600F4B00229A600E4B0022DA608F
:101020000C4B4FF480421A610A4B00225A61094B63
:1010300000229A61074B0022DA61064B00221A62F5
:10104000044801F0C3FD0346002B01D000F0D8F89E
:1010500000BF80BDC002002000540040A0860100F7
:1010600080B588B000AF786007F1100300221A60E5
:101070005A609A60DA607B681B68154A934223D1F4
:10108000144B9B69134A43F008039361114B9B690E
:1010900003F00803FB60FB68C0233B6112237B6104
:1010A0000323FB6107F1100319460B4801F0F2FB23
:1010B000084BDB69074A43F40013D361054BDB6936
:1010C00003F40013BB60BB6800BF2037BD4680BD82
:1010D0000054004000100240000C014080B582B076
:1010E00002AF01F0F1F900F033F8FFF70FFF00F065
:1010F0008DF8FFF787FF482004F038FA04F058FA1B
:1011000000F08AFC4FF4E13000F0F8FB04F08CFBB7
:1011100004F0D8FB012301930C4B009304232022FD
:101120000021002004F013FD00230193074B0093DE
:1011300004237A2200215A2004F009FD04F064FD02
:10114000FFF74AFD04F092FDFEE700BF30000020EB
:1011500080B590B000AF07F118032822002118468F
:1011600007F0B5FE3B1D00221A605A609A60DA60F3
:101170001A610123BB614FF48033FB6100233B62A2
:101180000123BB6202237B634FF48033BB634FF4C4
:10119000E013FB6307F11803184602F071F90346E8
:1011A000002B01D000F02CF80F237B600223BB60E2
:1011B0000023FB604FF480633B6100237B613B1D98
:1011C0000221184602F0DEFB0346002B01D000F09E
:1011D00017F800BF4037BD4680BD000080B582B023
:1011E00000AF78607B681B68044A934201D101F02C
:1011F00081F900BF0837BD4680BD00BF002C01400B
:1012000080B400AF72B600BFFEE7000080B500AF4B
:10121000174B184A1A60164B4FF482725A60144BDF
:1012200000229A60124B0022DA60114B00221A61F0
:101230000F4B00225A610E4B4FF400729A610C4B17
:101240003022DA610A4B00221A62094B00225A62EC
:10125000074B00229A62064B0A22DA62044802F027
:1012600059FD0346002B01D0FFF7CAFF00BF80BD28
:10127000140300200038004080B588B000AF7860CB
:1012800007F1100300221A605A609A60DA607B68E6
:101290001B681C4A934231D11B4BDB691A4A43F449
:1012A0008043D361184BDB6903F48043FB60FB6828
:1012B000154B9B69144A43F008039361124B9B69D9
:1012C00003F00803BB60BB684FF420433B6102237B
:1012D0007B610323FB6107F1100319460B4801F002
:1012E000D9FA4FF480433B6100237B610023BB614B
:1012F00007F110031946054801F0CCFA00BF20376A
:10130000BD4680BD0038004000100240000C014086
:1013100080B584B000AF184B9B69174A43F00103B6
:101320009361154B9B6903F00103BB60BB68124BD3
:10133000DB69114A43F08053D3610F4BDB6903F043
:1013400080537B607B6800220F216FF0010001F069
:10135000C6F90A4B5B68FB60FB6823F0E063FB6047
:10136000FB6843F00073FB60044AFB68536000BFF6
:101370001037BD4680BD00BF001002400000014094
:1013800080B58CB000AF78600023FB620023BB62A5
:1013900000227968192001F0A2F9192001F0BBF9A7
:1013A0001E4B9B691D4A43F4006393611B4B9B6971
:1013B00003F40063FB60FB6807F1100207F11403FC
:1013C0001146184602F058FC02F042FCF862FB6A33
:1013D000134AA2FB03239B0C013BBB62114B124A35
:1013E0001A60104B40F2E732DA600E4ABB6A536073
:1013F0000C4B00221A610B4B00229A60094803F043
:1014000091F80346002B04D1064803F0E3F80346A5
:1014100000E0012318463037BD4680BD0010024071
:1014200083DE1B436C030020002C014080B400AF1E
:10143000FEE780B400AFFEE780B400AFFEE780B403
:1014400000AFFEE780B400AFFEE780B400AF00BF9E
:10145000BD4680BC7047000080B500AF024803F075
:101460000BF900BF80BD00BF6C03002080B400AF4B
:1014700001231846BD4680BC704780B582B000AFDE
:101480007860396007F0F2FB034616221A604FF0CD
:10149000FF3318460837BD4680BD80B582B000AF27
:1014A00078604FF0FF317868FFF7E7FFFEE780B51F
:1014B00086B000AFF860B9607A6000237B610AE013
:1014C000AFF300800146BB685A1CBA60CAB21A70FA
:1014D0007B6901337B617A697B689A42F0DB7B68C8
:1014E00018461837BD4680BD80B586B000AFF8609D
:1014F000B9607A6000237B6109E0BB685A1CBA605E
:101500001B78184604F042F87B6901337B617A69E5
:101510007B689A42F1DB7B6818461837BD4680BD70
:1015200080B483B000AF78604FF0FF3318460C37BB
:10153000BD4680BC704780B483B000AF786039602E
:101540003B684FF400525A60002318460C37BD46E2
:1015500080BC704780B483B000AF78600123184628
:101560000C37BD4680BC704780B485B000AFF860D2
:10157000B9607A60002318461437BD4680BC7047B6
:1015800080B586B000AF7860144A154BD31A7B61E2
:101590007B693B61134B1B68002B02D1114B124A34
:1015A0001A60104B1A687B6813443A699A4207D252
:1015B00007F05CFB03460C221A604FF0FF3309E092
:1015C000084B1B68FB60074B1A687B681344054A8D
:1015D0001360FB6818461837BD4680BD00500020D8
:1015E00000040000B40300204827002080B400AFAE
:1015F00000BFBD4680BC7047FFF7F8FF0B480C49A1
:101600000C4A002302E0D458C4500433C4188C425E
:10161000F9D3094A094C002301E013600432A242C5
:10162000FBD307F01FFCFFF759FD704700000020B7
:101630008802002004EA00088802002048270020D1
:10164000FEE7000080B582B000AF78600F4B104A13
:101650001A600E4A7B6853600C4B00229A600B4B59
:101660000022DA60094B00221A61084B0C225A61F1
:10167000064B00229A61054B0022DA61034803F011
:101680009BF900BF0837BD4680BD00BFB8030020EE
:101690000044004080B582B000AF0023FB71134BC3
:1016A0001B681B6803F02003202B17D1104B1B88ED
:1016B0007F2B02D90E4B00221A80F91D4FF47A734A
:1016C00001220A4803F057FA094B1B885A1C91B2B1
:1016D000074A11801A46F979064B9954034803F0DA
:1016E0001DFB00BF0837BD4680BD00BFB80300200A
:1016F0007C040020FC03002080B400AF0C4B1B884E
:10170000002B01D101230FE0094B1A88094B1B88DC
:101710009A4204D1064B00221A80002304E0044BB5
:101720001A88044B1A8001231846BD4680BC7047B6
:101730007C0400207E04002080B500AF80220021C0
:10174000034807F0C4FB034B00221A8000BF80BD92
:10175000FC0300207C04002080B584B000AF7860DA
:101760003960FA23FB73FFF7E7FF7868FEF7F0FCB8
:1017700003469AB2642379680F4803F06AF910E0CF
:10178000FFF7BAFF0346002B08D139680B4808F071
:101790002CFC0346002B01D0002308E00A2000F0B7
:1017A000C5FEFB7B5A1EFA73002BE9D101231846B4
:1017B0001037BD4680BD00BFB8030020FC030020E9
:1017C00080B500AF03490448FFF7C6FF034618463B
:1017D00080BD00BF54D9000858D9000880B582B038
:1017E00000AF0346FB71FB79032B12D0032B16DCF1
:1017F000012B02D0022B06D011E00B490B48FFF75A
:10180000ABFF03460CE008490948FFF7A5FF034674
:1018100006E005490748FFF79FFF034600E0032362
:1018200018460837BD4680BD54D9000860D9000865
:1018300070D9000880D9000880B500AF034904487A
:10184000FFF78AFF0346184680BD00BF54D9000841
:1018500090D9000880B500AF03490448FFF77CFF2A
:101860000346184680BD00BF0CDA000810DA0008F5
:1018700080B500AF03490448FFF76EFF03461846E2
:1018800080BD00BF0CDA000844DA000880B592B0D1
:1018900000AF7860396007F108003B687A68074953
:1018A00008F040FB07F1080305491846FFF754FF0D
:1018B000034618464837BD4680BD00BF04DB00081C
:1018C00054D9000880B500AF03490448FFF744FF2E
:1018D0000346184680BD00BF54D9000820DB00082D
:1018E00080B500AF03490448FFF736FF03461846AA
:1018F00080BD00BF54D9000830DB000880B582B03D
:1019000000AF78607868FFF79DFE03E04FF4FA704F
:1019100000F00CFEFFF7ACFF0346002BF6D1334876
:1019200008F07AFA03E04FF4FA7000F0FFFDFFF7D9
:1019300047FF0346002BF6D12D4808F06DFA03E06F
:101940004FF4FA7000F0F2FDFFF776FF0346002B2C
:10195000F6D103E04FF4FA7000F0E8FDFFF77AFFEC
:101960000346002BF6D1234808F056FA03E04FF463
:10197000FA7000F0DBFD0220FFF730FF0346002B7A
:10198000F5D11D4808F048FA1C491D4808F0AAF98D
:1019900003E04FF47A7000F0C9FD1A491A48FFF7C6
:1019A00075FF0346002BF4D1184808F035FA03E020
:1019B0004FF4FA7000F0BAFDFFF784FF0346002BE6
:1019C000F6D1134808F028FA03E04FF4FA7000F05B
:1019D000ADFDFFF785FF0346002BF6D10D4808F05B
:1019E0001BFA002318460837BD4680BD58DA0008A8
:1019F00060DA000868DA000848DB00089CDA0008B2
:101A000054DB00085CDB000868DB000870DB0008C2
:101A100080DB0008F0DA000880B500AF00224FF448
:101A20008071144801F0BAF8FF230422AA21124859
:101A300002F0F4F901224FF480710E4801F0AEF883
:101A4000322000F073FD00F0F3F80A2000F06EFD84
:101A500000F0EEF80A2000F069FD00F04CF90A20D1
:101A600000F064FD00F026F9044808F0D5F900BF45
:101A700080BD00BF000C01401403002098DB00086B
:101A800080B485B000AF78600023FB6005E000BF44
:101A900000BF00BFFB680133FB60FA687B689A42B5
:101AA000F5D300BF00BF1437BD4680BC70470000AF
:101AB00080B586B002AF0346FB7107F10F02F91D36
:101AC0004FF0FF3300930123034802F0E3FAFB7B5E
:101AD00018461037BD4680BD1403002080B584B081
:101AE00000AF0346FB710023FB7300224FF48071AB
:101AF000144801F053F80A2000F018FDFB795B0050
:101B00005BB203F07E035BB263F07F035BB2BB7337
:101B1000BB7B1846FFF7CCFF0A2000F007FD002032
:101B2000FFF7C6FF0346FB730A2000F0FFFC01220B
:101B30004FF48071034801F031F8FB7B18461037F1
:101B4000BD4680BD000C014080B584B000AF0346A7
:101B50000A46FB711346BB7100224FF48071124894
:101B600001F01CF80A2000F0E1FCFB795B00DBB21D
:101B700003F07E03FB73FB7B1846FFF799FF0A20F7
:101B800000F0D4FCBB791846FFF792FF0A2000F062
:101B9000CDFC01224FF48071034800F0FFFF00BF2D
:101BA0001037BD4680BD00BF000C014080B584B039
:101BB00000AF03460A46FB711346BB710023FB735B
:101BC000FB791846FFF78AFF03461A46BB79134391
:101BD000FB73FA7BBB791343DAB2FB7911461846E3
:101BE000FFF7B2FF00BF1037BD4680BD80B584B09F
:101BF00000AF03460A46FB711346BB710023FB731B
:101C0000FB791846FFF76AFF03465AB297F9063088
:101C1000DB435BB213405BB2FB73FA7BFB7911468B
:101C20001846FFF791FF00BF1037BD4680BD00008A
:101C300080B500AF01224FF400711D4800F0AEFFE7
:101C40000A20FFF71DFF00224FF40071184800F032
:101C5000A5FF6420FFF714FF01224FF40071144820
:101C600000F09CFF0A20FFF70BFF0F210120FFF778
:101C70006BFF6420FFF704FF3D211120FFF764FF95
:101C80001E212D20FFF760FF00212C20FFF75CFFB5
:101C90008D212A20FFF758FF3E212B20FFF754FF0C
:101CA00040211520FFF750FF0023184680BD00BFDC
:101CB000000C014080B582B000AF40211520FFF735
:101CC00043FF012000F032FC1420FFF707FF03461A
:101CD000FB71FB7903F00303002B03D103211420D4
:101CE000FFF764FF1520FFF7F9FE0346FB7100BF05
:101CF0000837BD4680BD80B500AF03211420FFF733
:101D000075FF00BF80BD90B589B000AFB9607B6042
:101D10000346FB731346BB73FE23FB770023BB779D
:101D200000237B77FB7B0C2B06D00E2B09D11223D3
:101D3000BB7710237B7705E07723BB7730237B7756
:101D400000E000BFBB7F63F07F03DBB219460220D7
:101D5000FFF7FAFE80210420FFF748FF0021012051
:101D6000FFF7F2FE80210A20FFF720FF0023BB616E
:101D70000AE0BA68BB6913441B7819460920FFF7CB
:101D8000E3FEBB690133BB61BB7BBA699A42F0D306
:101D9000FB7B19460120FFF7D7FEFB7B0C2B03D101
:101DA00080210D20FFF702FF41F27073BB61042018
:101DB000FFF794FE03463B77BB69013BBB61BB6900
:101DC000002B0AD03B7F03F00103002B05D13A7FA3
:101DD0007B7F1340DBB2002BE9D080210D20FFF781
:101DE00005FFBB69002B52D00620FFF777FE0346A4
:101DF00003F01B03002B48D10023FB773A7FBB7F06
:101E00001340DBB203F00103002B01D0FF23FB776B
:101E1000FB7B0C2B3BD10A20FFF760FE03463B7790
:101E20000C20FFF75BFE034603F00703FB75FB7D09
:101E3000002B08D03B7F013BDA00FB7D13441A46A0
:101E40003B6B1A6004E03B7FDB001A463B6B1A6079
:101E50003B7F002B01D101233B773B7F122B01D924
:101E600012233B770023BB610AE07A68BB69D41870
:101E70000920FFF733FE03462370BB690133BB61C2
:101E80003B7FBA699A42F0D301E0FE23FB778021C1
:101E90000C20FFF78BFE00210120FFF755FEFB7F92
:101EA00018462437BD4690BD80B58CB002AF0346BE
:101EB0003960FB7108210820FFF798FE07210D20EB
:101EC000FFF742FE03211420FFF770FEFB793B73FE
:101ED00007F10C0207F10C0107F1200300931346F0
:101EE00001220C20FFF70FFF034687F8273097F8F1
:101EF0002730002B0AD13B6A102B07D13A7B3B6875
:101F00001A703B6801337A7B1A7002E0FE2387F86F
:101F1000273097F8273018462837BD4680BD80B552
:101F20008CB002AF7860002387F8253008210820A4
:101F3000FFF75CFE00210D20FFF706FE80210E203A
:101F4000FFF754FE93233B7320237B7307F10C02AE
:101F500007F10C0107F120030093134602220C2025
:101F6000FFF7D1FE034687F8273097F82730002B7C
:101F70002FD1002387F826301AE097F8262097F80B
:101F8000263079680B4428323A4412F81C2C1A7017
:101F900097F8263028333B4413F81C2C97F825304B
:101FA000534087F8253097F82630013387F82630DC
:101FB00097F82630032BE0D997F8263028333B4496
:101FC00013F81C3C97F825209A4202D0FE2387F88C
:101FD000273080210E20FFF7E9FD97F827301846BB
:101FE0002837BD4680BD000080B584B000AF786062
:101FF00039600023FB600AE0FB687A6813441B78B1
:102000001946084807F06EFEFB680133FB60FA686A
:102010003B689A42F0DB0A2007F07CFE00BF1037D5
:10202000BD4680BDB0DB000880B582B002AF374945
:102030005220FFF739FF0346002B62D1334B1B7848
:10204000042B07D1314B5B78002B03D1304807F0CC
:10205000E3FE32E02D4B1B78022B07D12B4B5B7834
:10206000002B03D12B4807F03DFE26E0274B1B78C1
:10207000442B07D1254B5B78002B03D1264807F072
:1020800031FE1AE0214B1B78082B07D11F4B5B78E0
:10209000002B03D1214807F025FE0EE01B4B1B78D7
:1020A000442B07D1194B5B78032B03D11C4807F055
:1020B00019FE02E01B4807F015FE1B48FFF72FFF33
:1020C0000346002B1DD1194807F00CFE164B1B7858
:1020D0001946154B5B781A46134B9B781846124BE2
:1020E000DB7800930346124807F0FCFD0E4800F031
:1020F0006BF80346002B04D10E4807F08DFE002339
:1021000000E0FE231846BD4680BD00BF88040020C5
:10211000B8DB0008C8DB0008D4DB0008E4DB0008FB
:10212000ECDB0008F8DB00088004002000DC00087D
:102130000CDC00082CDC000880B586B000AF002362
:102140003B603B1D00221A605A609A603B4619466C
:10215000012000F043F90346002B29D13B46102112
:102160001846FFF741FF00237B6106233B610FE028
:102170003A463B6913441A783B69063B0F49CB5CEE
:102180009A4202D17B6901337B613B6901333B6138
:102190003B69092BECDD7B69042B04D1084807F06F
:1021A0003BFE002305E0074807F036FEFE2300E073
:1021B000FE2318461837BD4680BD00BF040000202E
:1021C00050DC000860DC000880B58CB002AF78609D
:1021D00093233B7370237B730023BB74002387F826
:1021E000263019E097F826307A681A4497F8263096
:1021F0000233127828333B4403F81C2CBA7C97F83E
:10220000263079680B441B785340DBB2BB7497F8D7
:102210002630013387F8263097F82630032BE1D992
:1022200007F10C03DA1D07F10C030721184600F033
:10223000FDF808210820FFF7D9FC07F10C0207F18F
:102240000C0107F120030093134609220C20FFF72D
:102250005AFD034687F8273097F82730002B06D120
:102260003B6A182B03D1002387F8273002E0FE23B6
:1022700087F8273097F8273018462837BD4680BDA5
:1022800080B58EB002AFBA607B600346FB730B462D
:10229000BB73FB7B3B75BB7B7B75002387F82E30C4
:1022A00010E097F82E30BA681A4497F82E300233AF
:1022B000127830333B4403F81C2C97F82E3001334E
:1022C00087F82E3097F82E30052BEAD9002387F8AF
:1022D0002E3010E097F82E307A681A4497F82E3096
:1022E0000833127830333B4403F81C2C97F82E3017
:1022F000013387F82E3097F82E30052BEAD907F1F5
:10230000140207F1140107F12803009313460C226D
:102310000E20FFF7F8FC034687F82F3097F82F3090
:10232000002B07D10820FFF7D9FB034603F0080371
:10233000002B02D1FE2387F82F3097F82F30184654
:102340003037BD4680BD80B58CB002AF03463960E2
:10235000FB7130233B73FB797B7307F10C039A1CF1
:1023600007F10C030221184600F060F807F10C0297
:1023700007F10C0107F120030093134604220C20FF
:10238000FFF7C1FC034687F8273097F82730002B6A
:102390001BD13B6A902B18D1002387F826300FE021
:1023A00097F8262097F8263039680B4428323A44AB
:1023B00012F81C2C1A7097F82630013387F8263053
:1023C00097F826300F2BEBD902E0FE2387F8273051
:1023D00097F8273018462837BD4680BD80B584B0B1
:1023E00000AF03463960FB71F9790E4B0E4A60204D
:1023F000FFF746FF0346FB73FB7B002B01D0FB7B03
:102400000CE0FB7939681846FFF79DFF0346FB7324
:10241000FB7B002B01D0FB7B00E00023184610372C
:10242000BD4680BD800400200800002090B587B024
:1024300000AFF8600B467A60FB7204210520FFF7BD
:10244000D5FB00210120FFF77FFB80210A20FFF749
:10245000ADFB0023FB750AE0FB7DFA6813441B7893
:1024600019460920FFF770FBFB7D0133FB75FA7DF0
:10247000FB7A9A42F0D303210120FFF765FBFF238B
:10248000FB750520FFF72AFB0346BB75FB7D013B6F
:10249000FB75FB7D002B04D0BB7D03F00403002BF8
:1024A000EFD02220FFF71AFB03461A467B681A700A
:1024B0007B685C1C2120FFF711FB0346237000BFE3
:1024C0001C37BD4690BD000080B500AF084B1B68AF
:1024D000074A43F010031360032000F0F5F80F20C3
:1024E000FEF74EFFFEF714FF0023184680BD00BF25
:1024F0000020024080B400AF054B1B781A46054B04
:102500001B681344034A136000BFBD4680BC70477C
:10251000140000208C04002080B400AF024B1B6824
:102520001846BD4680BC70478C04002080B584B03E
:1025300000AF7860FFF7F0FFB8607B68FB60FB6876
:10254000B3F1FF3F05D00A4B1B781A46FB681344D2
:10255000FB6000BFFFF7E0FF0246BB68D31AFA68D2
:102560009A42F7D800BF00BF1037BD4680BD00BFFC
:102570001400002080B485B000AF78607B6803F061
:102580000703FB600C4BDB68BB60BA684FF6FF03C8
:102590001340BB60FB681A02BB68134343F0BF6380
:1025A00043F40033BB60044ABB68D36000BF1437F8
:1025B000BD4680BC704700BF00ED00E080B400AFB6
:1025C000044BDB681B0A03F007031846BD4680BCBA
:1025D000704700BF00ED00E080B483B000AF034659
:1025E000FB7197F90730002B0BDBFB7903F01F021F
:1025F000064997F907305B09012000FA02F241F819
:10260000232000BF0C37BD4680BC704700E100E0CE
:1026100080B483B000AF03463960FB7197F907308F
:10262000002B0ADB3B68DAB20C4997F9073012013C
:10263000D2B20B4483F800230AE03B68DAB20849BF
:10264000FB7903F00F03043B1201D2B20B441A765C
:1026500000BF0C37BD4680BC704700BF00E100E002
:1026600000ED00E080B489B000AFF860B9607A6036
:10267000FB6803F00703FB61FB69C3F10703042B4D
:1026800028BF0423BB61FB690433062B02D9FB6915
:10269000033B00E000237B614FF0FF32BB6902FA8D
:1026A00003F3DA43BB681A407B699A404FF0FF316D
:1026B0007B6901FA03F3D9437B680B401343184647
:1026C0002437BD4680BC704780B582B000AF7860CB
:1026D0007868FFF74FFF00BF0837BD4680BD80B563
:1026E00086B000AF0346B9607A60FB7300237B615C
:1026F000FFF764FF78617A68B9687869FFF7B2FF1D
:10270000024697F90F3011461846FFF781FF00BFC8
:102710001837BD4680BD80B582B000AF0346FB715F
:1027200097F907301846FFF757FF00BF0837BD4637
:1027300080BD80B485B000AF78600023FB737B68F8
:1027400093F82130022B08D07B6804229A637B68BF
:10275000002283F82020012320E07B681B681A6890
:102760007B681B6822F00E021A607B681B681A687F
:102770007B681B6822F001021A607B681A6C7B6818
:10278000DB6B012101FA02F25A607B68012283F8B7
:1027900021207B68002283F82020FB7B1846143719
:1027A000BD4680BC7047000080B584B000AF786043
:1027B0000023FB737B6893F82130022B05D07B68E4
:1027C00004229A630123FB7351E07B681B681A683B
:1027D0007B681B6822F00E021A607B681B681A680F
:1027E0007B681B6822F001021A607B681B68224A22
:1027F000934229D07B681B68204A934222D07B6891
:102800001B681F4A93421AD07B681B681D4A93427B
:1028100012D07B681B681C4A93420AD07B681B68F5
:102820001A4A934202D14FF480130EE04FF08073A6
:102830000BE04FF4803308E04FF4805305E04FF491
:10284000807302E0102300E00123114A53607B688B
:10285000012283F821207B68002283F820207B68F6
:102860005B6B002B03D07B685B6B78689847FB7BC6
:1028700018461037BD4680BD080002401C000240CB
:102880003000024044000240580002406C00024008
:102890000000024080B48BB000AF78603960002344
:1028A0007B6200233B6269E101227B6A02FA03F347
:1028B000FB613B681B68FA691340BB61BA69FB693D
:1028C0009A4240F058813B685B689A4A93425ED0D6
:1028D000984A934275D8984A934258D0964A934260
:1028E0006FD8964A934252D0944A934269D8944AF8
:1028F00093424CD0924A934263D8924A934246D034
:10290000904A93425DD8122B2AD8122B59D801A293
:1029100052F823F08F290008692900087B29000854
:10292000BD290008C3290008C3290008C3290008DD
:10293000C3290008C3290008C3290008C3290008C7
:10294000C3290008C3290008C3290008C3290008B7
:10295000C3290008C3290008712900088529000837
:10296000794A934213D02CE03B68DB683B6229E054
:102970003B68DB6804333B6224E03B68DB68083378
:102980003B621FE03B68DB680C333B621AE03B684C
:102990009B68002B02D104233B6213E03B689B68D9
:1029A000012B05D108233B627B68FA691A6109E0B3
:1029B00008233B627B68FA695A6103E000233B62AB
:1029C00000E000BFBB69FF2B01D87B6801E07B689A
:1029D00004337B61BB69FF2B02D87B6A9B0002E05A
:1029E0007B6A083B9B003B617B691A680F213B694E
:1029F00001FA03F3DB431A40396A3B6901FA03F336
:102A00001A437B691A603B685B6803F08053002BB4
:102A100000F0B1804D4B9B694C4A43F00103936138
:102A20004A4B9B6903F00103BB60BB68484A7B6A61
:102A30009B08023352F82330FB607B6A03F00303E8
:102A40009B000F2202FA03F3DB43FA681340FB609A
:102A50007B68404A934213D07B683F4A93420DD033
:102A60007B683E4A934207D07B683D4A934201D13E
:102A7000032306E0042304E0022302E0012300E034
:102A800000237A6A02F0030292009340FA6813432B
:102A9000FB602F497B6A9B080233FA6841F82320C8
:102AA0003B685B6803F48033002B06D02D4B1A681B
:102AB0002C49BB6913430B6006E02A4B1A68BB69BB
:102AC000DB43284913400B603B685B6803F4003329
:102AD000002B06D0234B5A682249BB6913434B6035
:102AE00006E0204B5A68BB69DB431E4913404B602C
:102AF0003B685B6803F48013002B06D0194B9A687F
:102B00001849BB6913438B6006E0164B9A68BB6992
:102B1000DB43144913408B603B685B6803F400138C
:102B2000002B21D00F4BDA680E49BB691343CB60F1
:102B300021E000BF00003210000031100000221020
:102B400000002110000012100000111000100240BF
:102B50000000014000080140000C0140001001404D
:102B600000140140000401400B4BDA68BB69DB43F1
:102B700009491340CB607B6A01337B623B681A686A
:102B80007B6A22FA03F3002B7FF48EAE00BF00BFF6
:102B90002C37BD4680BC70470004014080B483B030
:102BA00000AF78600B467B8013467B707B78002BF0
:102BB00003D07A887B681A6103E07B881A047B68FB
:102BC0001A6100BF0C37BD4680BC704780B584B029
:102BD00000AF78607B68002B01D101232BE17B687B
:102BE00093F83D30DBB2002B06D17B68002283F8DE
:102BF0003C207868FEF734FA7B68242283F83D2075
:102C00007B681B681A687B681B6822F001021A60E7
:102C10007B681B681A687B681B6842F400421A6074
:102C20007B681B681A687B681B6822F400421A6084
:102C300000F0FAFFF8607B685B68814A934207D82E
:102C4000FB68804A934294BF01230023DBB206E075
:102C5000FB687D4A934294BF01230023DBB2002B23
:102C600001D00123E7E0FB68784AA2FB03239B0C19
:102C7000BB607B681B685B6823F03F017B681B6857
:102C8000BA680A435A607B681B681B6A23F03F01DD
:102C90007B685B686A4A934202D8BB68013309E0EB
:102CA000BB684FF4967202FB03F3694AA2FB03234D
:102CB0009B0901337A6812680B4313627B681B68B7
:102CC000DB6923F44F4222F0FF027B685B685C49BA
:102CD0008B4219D8FB68591E7B685B685B00B1FBAF
:102CE000F3F3591C40F6FC730B40002B0AD0FB6831
:102CF000591E7B685B685B00B1FBF3F30133C3F3E0
:102D00000B0351E004234FE07B689B68002B11D13B
:102D1000FB68581E7B6859680B465B000B44B0FB90
:102D2000F3F30133C3F30B03002B0CBF0123002388
:102D3000DBB212E0FB68581E7B6859680B469B00AB
:102D40000B4499000B44B0FBF3F30133C3F30B03C3
:102D5000002B0CBF01230023DBB2002B01D0012389
:102D600022E07B689B68002B0ED1FB68581E7B68B5
:102D700059680B465B000B44B0FBF3F30133C3F31C
:102D80000B0343F400430FE0FB68581E7B6859684F
:102D90000B469B000B4499000B44B0FBF3F301334B
:102DA000C3F30B0343F44043796809681343CB61D1
:102DB0007B681B681B6823F0C0017B68DA697B684D
:102DC0001B6A1A437B681B680A431A607B681B688E
:102DD0009B6823F4034323F0FF037A6811697A6840
:102DE000D26811437A6812680B4393607B681B6852
:102DF000DB6823F0FF017B685A697B689B691A4393
:102E00007B681B680A43DA607B681B681A687B680A
:102E10001B6842F001021A607B6800221A647B681A
:102E2000202283F83D207B6800221A637B68002201
:102E300083F83E20002318461037BD4680BD00BFF2
:102E4000A08601007F841E00FF083D0083DE1B4337
:102E5000D34D621080B588B002AFF86008461146C5
:102E60001A4603467B810B463B811346FB80FFF7E6
:102E700053FB7861FB6893F83D30DBB2202B40F0C8
:102E8000D9807B690093192301226D49F86800F00D
:102E900071F90346002B01D00223CCE0FB6893F8C4
:102EA0003C30012B01D10223C5E0FB68012283F8ED
:102EB0003C20FB681B681B6803F00103012B07D053
:102EC000FB681B681A68FB681B6842F001021A6005
:102ED000FB681B681A68FB681B6822F400621A60B2
:102EE000FB68212283F83D20FB68402283F83E20C6
:102EF000FB6800221A64FB683A6A5A62FB68BA8C63
:102F00005A85FB685B8D9AB2FB681A85FB684D4A4F
:102F1000DA62F8883A8979897B690193BB6A009300
:102F20000346F86800F090F80346002B52D00123C6
:102F300081E07A69B96AF86800F0F2F90346002B7B
:102F40000DD0FB681B6C042B07D1FB681B681A684B
:102F5000FB681B6842F400721A6001236BE0FB6897
:102F60005B6A1A78FB681B681A61FB685B6A5A1C0B
:102F7000FB685A62FB681B8D013B9AB2FB681A859D
:102F8000FB685B8D9BB2013B9AB2FB685A85FB687C
:102F90001B685B6903F00403042B1BD1FB681B8DCA
:102FA000002B17D0FB685B6A1A78FB681B681A61F4
:102FB000FB685B6A5A1CFB685A62FB681B8D013B0D
:102FC0009AB2FB681A85FB685B8D9BB2013B9AB293
:102FD000FB685A85FB681B8D002BAAD17A69B96AF8
:102FE000F86800F0DEF90346002B0DD0FB681B6C7F
:102FF000042B07D1FB681B681A68FB681B6842F446
:1030000000721A60012316E0FB681B681A68FB68EF
:103010001B6842F400721A60FB68202283F83D208E
:10302000FB68002283F83E20FB68002283F83C20E6
:10303000002300E0022318461837BD4680BD00BFBC
:10304000020010000000FFFF80B588B002AFF860FA
:10305000084611461A4603467B810B463B811346C0
:10306000FB80FB681B681A68FB681B6842F480726F
:103070001A607B6A00933B6A00224FF00111F868E6
:1030800000F078F80346002B0DD0FB681B681B6826
:1030900003F48073B3F5807F03D1FB684FF40072B3
:1030A0001A6403235FE07B89DBB21A46FB681B6866
:1030B00002F0FE021A617B6A3A6A2D49F86800F054
:1030C000B0F80346002B01D001234CE000237B61C4
:1030D000FB681B685B697B61FB681B689B697B61A4
:1030E0007B697A6A396AF86800F01AF90346002B9E
:1030F0000DD0FB681B6C042B07D1FB681B681A689A
:10310000FB681B6842F400721A6001232BE0FB8805
:10311000012B05D13B89DAB2FB681B681A6121E0FB
:103120003B891B0A9BB2DAB2FB681B681A617A6A98
:10313000396AF86800F0F4F80346002B0DD0FB68FC
:103140001B6C042B07D1FB681B681A68FB681B68A3
:1031500042F400721A60012305E03B89DAB2FB6891
:103160001B681A61002318461837BD4680BD00BF92
:103170000200010080B584B000AFF860B9603B6028
:103180001346FB7125E03B68B3F1FF3F21D0FFF709
:10319000C3F90246BB69D31A3A689A4202D33B6824
:1031A000002B16D1FB6800221A63FB68202283F8EB
:1031B0003D20FB68002283F83E20FB681B6C43F037
:1031C0002002FB681A64FB68002283F83C2001237C
:1031D00023E0BB681B0CDBB2012B0DD1FB681B6825
:1031E0005B69DA43BB6813409BB2002B0CBF012321
:1031F0000023DBB21A460CE0FB681B689B69DA43CC
:10320000BB6813409BB2002B0CBF01230023DBB231
:103210001A46FB799A42B6D0002318461037BD46AD
:1032200080BD80B584B000AFF860B9607A603B6063
:1032300051E0FB681B685B6903F48063B3F5806F42
:1032400023D1FB681B681A68FB681B6842F4007294
:103250001A60FB681B686FF480625A61FB68002289
:103260001A63FB68202283F83D20FB68002283F864
:103270003E20FB681B6C43F00402FB681A64FB6889
:10328000002283F83C20012346E07B68B3F1FF3F36
:1032900021D0FFF741F902463B68D31A7A689A4277
:1032A00002D37B68002B16D1FB6800221A63FB68EF
:1032B000202283F83D20FB68002283F83E20FB6833
:1032C0001B6C43F02002FB681A64FB68002283F841
:1032D0003C20012320E0BB681B0CDBB2012B0CD18E
:1032E000FB681B685B69DA43BB6813409BB2002B29
:1032F00014BF01230023DBB20BE0FB681B689B6952
:10330000DA43BB6813409BB2002B14BF0123002398
:10331000DBB2002B8DD1002318461037BD4680BD8F
:1033200080B584B000AFF860B9607A602DE0F868CD
:1033300000F078F80346002B01D001232DE0BB6894
:10334000B3F1FF3F21D0FFF7E7F802467B68D31ABD
:10335000BA689A4202D3BB68002B16D1FB680022E0
:103360001A63FB68202283F83D20FB68002283F863
:103370003E20FB681B6C43F02002FB681A64FB686C
:10338000002283F83C20012307E0FB681B685B698F
:1033900003F08003802BCAD1002318461037BD46A6
:1033A00080BD80B584B000AFF860B9607A602DE070
:1033B000F86800F037F80346002B01D001232DE018
:1033C000BB68B3F1FF3F21D0FFF7A6F802467B6848
:1033D000D31ABA689A4202D3BB68002B16D1FB6895
:1033E00000221A63FB68202283F83D20FB6800223C
:1033F00083F83E20FB681B6C43F02002FB681A64D4
:10340000FB68002283F83C20012307E0FB681B686F
:103410005B6903F00403042BCAD10023184610375C
:10342000BD4680BD80B483B000AF78607B681B6808
:103430005B6903F48063B3F5806F1BD17B681B6805
:103440006FF480625A617B6800221A637B682022D5
:1034500083F83D207B68002283F83E207B681B6C4C
:1034600043F004027B681A647B68002283F83C20E6
:10347000012300E0002318460C37BD4680BC70478E
:1034800080B586B000AF78607B68002B01D1012346
:1034900072E27B681B6803F00103002B00F0878059
:1034A000924B5B6803F00C03042B0CD08F4B5B68D2
:1034B00003F00C03082B12D18C4B5B6803F48033B0
:1034C000B3F5803F0BD1894B1B6803F40033002B0D
:1034D0006CD07B685B68002B68D101234CE27B6871
:1034E0005B68B3F5803F06D1804B1B687F4A43F48D
:1034F000803313602EE07B685B68002B0CD17B4B24
:103500001B687A4A23F480331360784B1B68774A30
:1035100023F4802313601DE07B685B68B3F5A02F64
:103520000CD1724B1B68714A43F4802313606F4BBC
:103530001B686E4A43F4803313600BE06B4B1B68CF
:103540006A4A23F480331360684B1B68674A23F48C
:10355000802313607B685B68002B13D0FEF7DCFFD1
:10356000386108E0FEF7D8FF02463B69D31A642BA6
:1035700001D9032300E25D4B1B6803F40033002BE9
:10358000F0D014E0FEF7C8FF386108E0FEF7C4FF92
:1035900002463B69D31A642B01D90323ECE1534B58
:1035A0001B6803F40033002BF0D100E000BF7B6800
:1035B0001B6803F00203002B63D04C4B5B6803F0E5
:1035C0000C03002B0BD0494B5B6803F00C03082B5A
:1035D0001CD1464B5B6803F48033002B16D1434B60
:1035E0001B6803F00203002B05D07B681B69012BCD
:1035F00001D00123C0E13D4B1B6823F0F8027B683A
:103600005B69DB00394913430B603AE07B681B6957
:10361000002B20D0364B01221A60FEF77DFF386167
:1036200008E0FEF779FF02463B69D31A022B01D965
:103630000323A1E12D4B1B6803F00203002BF0D004
:103640002A4B1B6823F0F8027B685B69DB00274983
:1036500013430B6015E0264B00221A60FEF75CFF57
:10366000386108E0FEF758FF02463B69D31A022B87
:1036700001D9032380E11D4B1B6803F00203002BDB
:10368000F0D17B681B6803F00803002B3AD07B68FD
:103690009B69002B19D0174B01221A60FEF73CFFE3
:1036A000386108E0FEF738FF02463B69D31A022B67
:1036B00001D9032360E10D4B5B6A03F00203002B89
:1036C000F0D0012000F008FB1CE00A4B00221A6039
:1036D000FEF722FF38610FE0FEF71EFF02463B694E
:1036E000D31A022B08D9032346E100BF0010024081
:1036F0000000424280044242924B5B6A03F00203A4
:10370000002BE9D17B681B6803F00403002B00F059
:10371000A6800023FB758B4BDB6903F08053002BE5
:103720000DD1884BDB69874A43F08053D361854BC9
:10373000DB6903F08053BB60BB680123FB75824BE0
:103740001B6803F48073002B18D17F4B1B687E4AE3
:1037500043F480731360FEF7DFFE386108E0FEF784
:10376000DBFE02463B69D31A642B01D9032303E134
:10377000754B1B6803F48073002BF0D07B68DB680B
:10378000012B06D16F4B1B6A6E4A43F00103136293
:103790002DE07B68DB68002B0CD16A4B1B6A694A01
:1037A00023F001031362674B1B6A664A23F004038C
:1037B00013621CE07B68DB68052B0CD1614B1B6A34
:1037C000604A43F0040313625E4B1B6A5D4A43F098
:1037D000010313620BE05B4B1B6A5A4A23F001039F
:1037E0001362584B1B6A574A23F0040313627B6829
:1037F000DB68002B15D0FEF78FFE38610AE0FEF77C
:103800008BFE02463B69D31A41F28832934201D9BA
:103810000323B1E04B4B1B6A03F00203002BEED0F5
:1038200014E0FEF779FE38610AE0FEF775FE024605
:103830003B69D31A41F28832934201D903239BE0BA
:10384000404B1B6A03F00203002BEED1FB7D012BE2
:1038500005D13C4BDB693B4A23F08053D3617B6845
:10386000DB69002B00F08780364B5B6803F00C03AC
:10387000082B61D07B68DB69022B46D1334B0022D9
:103880001A60FEF749FE386108E0FEF745FE024681
:103890003B69D31A022B01D903236DE0294B1B6826
:1038A00003F00073002BF0D17B681B6AB3F5803FF7
:1038B00008D1244B5B6823F400327B689B68214964
:1038C00013434B601F4B5B6823F474127B68196AC7
:1038D0007B685B6A0B431B4913434B601B4B012204
:1038E0001A60FEF719FE386108E0FEF715FE024681
:1038F0003B69D31A022B01D903233DE0114B1B680E
:1039000003F00073002BF0D035E0104B00221A605A
:10391000FEF702FE386108E0FEF7FEFD02463B6955
:10392000D31A022B01D9032326E0064B1B6803F0B0
:103930000073002BF0D11EE07B68DB69012B07D1FF
:10394000012319E000100240007000406000424274
:103950000B4B5B68FB60FB6803F480327B681B6A7F
:103960009A4206D1FB6803F470127B685B6A9A4244
:1039700001D0012300E0002318461837BD4680BD62
:103980000010024080B584B000AF786039607B6879
:10399000002B01D10123D0E06A4B1B6803F0070321
:1039A0003A689A4210D9674B1B6823F007026549B1
:1039B0003B6813430B60634B1B6803F007033A68D3
:1039C0009A4201D00123B8E07B681B6803F0020330
:1039D000002B20D07B681B6803F00403002B05D06C
:1039E000594B5B68584A43F4E06353607B681B683B
:1039F00003F00803002B05D0534B5B68524A43F495
:103A000060535360504B5B6823F0F0027B689B6807
:103A10004D4913434B607B681B6803F00103002B87
:103A200040D07B685B68012B07D1474B1B6803F4D0
:103A30000033002B15D101237FE07B685B68022BEC
:103A400007D1414B1B6803F00073002B09D1012300
:103A500073E03D4B1B6803F00203002B01D10123EF
:103A60006BE0394B5B6823F003027B685B68364987
:103A700013434B60FEF750FDF8600AE0FEF74CFD83
:103A80000246FB68D31A41F28832934201D90323DC
:103A900053E02D4B5B6803F00C027B685B689B0076
:103AA0009A42EBD1274B1B6803F007033A689A420E
:103AB00010D2244B1B6823F0070222493B681343B2
:103AC0000B60204B1B6803F007033A689A4201D051
:103AD000012332E07B681B6803F00403002B08D04D
:103AE000194B5B6823F4E0627B68DB68164913437B
:103AF0004B607B681B6803F00803002B09D0124B56
:103B00005B6823F460527B681B69DB000E4913433A
:103B10004B6000F021F802460B4B5B681B0903F079
:103B20000F030A49CB5C22FA03F3094A1360094BDD
:103B30001B681846FDF724FC002318461037BD46C5
:103B400080BD00BF002002400010024034DD0008AC
:103B5000000000201000002090B48AB000AF294B74
:103B60003C1D0FCB84E80F0040F201233B80002373
:103B7000FB610023BB6100237B6200237B61002388
:103B80003B62214B5B68FB61FB6903F00C03042B78
:103B900002D0082B03D02BE01C4B3B622BE0FB69CF
:103BA0009B0C03F00F0328333B4413F8243C7B6148
:103BB000FB6903F48033002B12D0134B5B685B0C62
:103BC00003F0010328333B4413F8283CBB617B69B5
:103BD0000E4A03FB02F2BB69B2FBF3F37B6204E023
:103BE0007B690B4A02FB03F37B627B6A3B6202E068
:103BF000064B3B6200BF3B6A18462837BD4690BC67
:103C0000704700BF7CDC00080010024000127A0000
:103C100000093D0080B400AF024B1B681846BD464A
:103C200080BC70470000002080B500AFFFF7F2FFB6
:103C30000246054B5B681B0A03F007030349CB5C94
:103C400022FA03F3184680BD0010024044DD00084C
:103C500080B500AFFFF7DEFF0246054B5B68DB0A6D
:103C600003F007030349CB5C22FA03F3184680BD37
:103C70000010024044DD000880B483B000AF7860DB
:103C800039607B680F221A60114B5B6803F00302F6
:103C90007B685A600E4B5B6803F0F0027B689A60A9
:103CA0000B4B5B6803F4E0627B68DA60084B5B688F
:103CB000DB0803F4E0627B681A61064B1B6803F0C3
:103CC00007023B681A6000BF0C37BD4680BC7047D6
:103CD000001002400020024080B485B000AF786040
:103CE0000A4B1B680A4AA2FB03235B0A7A6802FBA1
:103CF00003F3FB6000BFFB685A1EFA60002BF9D18A
:103D000000BF00BF1437BD4680BC704700000020D4
:103D1000D34D621080B582B000AF78607B68002B15
:103D200001D1012376E07B685B6A002B08D17B68B8
:103D30005B68B3F5827F09D07B680022DA6105E019
:103D40007B6800221A617B6800225A617B6800222E
:103D50009A627B6893F85130DBB2002B06D17B6806
:103D6000002283F850207868FDF786FA7B680222EB
:103D700083F851207B681B681A687B681B6822F0F7
:103D800040021A607B685B6803F482727B689B6800
:103D900003F404431A437B68DB6803F400631A43AB
:103DA0007B681B6903F002031A437B685B6903F0BD
:103DB00001031A437B689B6903F400731A437B6811
:103DC000DB6903F038031A437B681B6A03F0800346
:103DD00042EA03017B689B6A03F400527B681B681C
:103DE0000A431A607B689B691A0C7B681B6802F0A7
:103DF00004025A607B681B68DA697B681B6822F4DE
:103E00000062DA617B6800225A657B68012283F8D0
:103E10005120002318460837BD4680BD80B588B0C4
:103E200000AFF860B9603B601346FB800023FB776E
:103E3000FB6893F85030012B01D1022326E1FB6887
:103E4000012283F85020FEF767FBB861FB88FB82F4
:103E5000FB6893F85130DBB2012B02D00223FB77D1
:103E60000BE1BB68002B02D0FB88002B02D10123A1
:103E7000FB7702E1FB68032283F85120FB680022F4
:103E80005A65FB68BA681A63FB68FA889A86FB6809
:103E9000FA88DA86FB6800229A63FB6800229A8718
:103EA000FB680022DA87FB6800225A64FB68002264
:103EB0001A64FB689B68B3F5004F0FD1FB681B6861
:103EC0001A68FB681B6822F040021A60FB681B68D6
:103ED0001A68FB681B6842F480421A60FB681B6822
:103EE0001B6803F04003402B07D0FB681B681A686F
:103EF000FB681B6842F040021A60FB68DB68B3F5A0
:103F0000006F4BD1FB685B68002B02D0FB8A012B52
:103F10003ED1FB681B6B1A88FB681B68DA60FB6884
:103F20001B6B9A1CFB681A63FB68DB8E9BB2013B20
:103F30009AB2FB68DA862BE0FB681B689B6803F08B
:103F40000203022B12D1FB681B6B1A88FB681B68EB
:103F5000DA60FB681B6B9A1CFB681A63FB68DB8EDC
:103F60009BB2013B9AB2FB68DA8611E0FEF7D4FA05
:103F70000246BB69D31A3A689A4203D83B68B3F148
:103F8000FF3F02D13B68002B02D10323FB7774E093
:103F9000FB68DB8E9BB2002BCED14CE0FB685B68EC
:103FA000002B02D0FB8A012B40D1FB681A6BFB6807
:103FB0001B680C3312781A70FB681B6B5A1CFB6869
:103FC0001A63FB68DB8E9BB2013B9AB2FB68DA8610
:103FD0002CE0FB681B689B6803F00203022B13D1E3
:103FE000FB681A6BFB681B680C3312781A70FB684D
:103FF0001B6B5A1CFB681A63FB68DB8E9BB2013B90
:104000009AB2FB68DA8611E0FEF786FA0246BB69CF
:10401000D31A3A689A4203D83B68B3F1FF3F02D102
:104020003B68002B02D10323FB7726E0FB68DB8E85
:104030009BB2002BCDD1BA693968F86800F054FA08
:104040000346002B02D0FB6820225A65FB689B6860
:10405000002B0AD100233B61FB681B68DB683B61D6
:10406000FB681B689B683B613B69FB685B6D002BD1
:1040700002D00123FB7700E000BFFB68012283F838
:104080005120FB68002283F85020FB7F1846203720
:10409000BD4680BD80B58CB000AFF860B9607A6075
:1040A0007B800123FB62002387F82B30FB6893F8A9
:1040B0005030012B01D102238AE1FB68012283F8F1
:1040C0005020FEF729FA7862FB6893F8513087F8A0
:1040D0002330FB685B68FB617B887B8397F8233028
:1040E000012B0FD0FB69B3F5827F07D1FB689B687A
:1040F000002B03D197F82330042B03D0022387F839
:104100002B305BE1BB68002B05D07B68002B02D015
:104110007B88002B03D1012387F82B304EE1FB680D
:1041200093F85130DBB2042B03D0FB68052283F8EF
:104130005120FB6800225A65FB687A689A63FB6825
:104140007A88DA87FB687A889A87FB68BA681A6384
:10415000FB687A88DA86FB687A889A86FB68002290
:104160001A64FB6800225A64FB681B681B6803F032
:104170004003402B07D0FB681B681A68FB681B686C
:1041800042F040021A60FB68DB68B3F5006F78D13B
:10419000FB685B68002B02D07B8B012B66D1FB6830
:1041A0001B6B1A88FB681B68DA60FB681B6B9A1C28
:1041B000FB681A63FB68DB8E9BB2013B9AB2FB681B
:1041C000DA8653E0FB681B689B6803F00203022B4E
:1041D0001BD1FB68DB8E9BB2002B16D0FB6A012B38
:1041E00013D1FB681B6B1A88FB681B68DA60FB68DD
:1041F0001B6B9A1CFB681A63FB68DB8E9BB2013B4E
:104200009AB2FB68DA860023FB62FB681B689B6836
:1042100003F00103012B19D1FB68DB8F9BB2002B4C
:1042200014D0FB681B68DA68FB689B6B92B21A803B
:10423000FB689B6B9A1CFB689A63FB68DB8F9BB2E5
:10424000013B9AB2FB68DA870123FB62FEF764F94F
:1042500002467B6AD31ABA6B9A4207D8BB6BB3F19A
:10426000FF3F03D0032387F82B30A7E0FB68DB8EEA
:104270009BB2002BA6D1FB68DB8F9BB2002BA1D198
:104280007CE0FB685B68002B02D07B8B012B6BD141
:10429000FB681A6BFB681B680C3312781A70FB689A
:1042A0001B6B5A1CFB681A63FB68DB8E9BB2013BDD
:1042B0009AB2FB68DA8657E0FB681B689B6803F0DC
:1042C0000203022B1CD1FB68DB8E9BB2002B17D0A4
:1042D000FB6A012B14D1FB681A6BFB681B680C335B
:1042E00012781A70FB681B6B5A1CFB681A63FB6818
:1042F000DB8E9BB2013B9AB2FB68DA860023FB623D
:10430000FB681B689B6803F00103012B19D1FB6854
:10431000DB8F9BB2002B14D0FB681B68DA68FB684C
:104320009B6BD2B21A70FB689B6B5A1CFB689A633A
:10433000FB68DB8F9BB2013B9AB2FB68DA870123F3
:10434000FB62FEF7E9F802467B6AD31ABA6B9A421F
:1043500003D8BB6BB3F1FF3F02D1BB6B002B03D182
:10436000032387F82B3029E0FB68DB8E9BB2002B00
:10437000A2D1FB68DB8F9BB2002B9DD17A6AB96B0F
:10438000F86800F0B1F80346002B06D0012387F847
:104390002B30FB6820225A6510E0FB689B68002BDD
:1043A0000BD100237B61FB681B68DB687B61FB68CA
:1043B0001B689B687B617B6900E000BFFB68012292
:1043C00083F85120FB68002283F8502097F82B30A7
:1043D00018463037BD4680BD80B588B000AFF86064
:1043E000B9603B601346FB71FEF796F80246BB6A64
:1043F0009B1A3A681344FB61FEF78EF8B861394B9B
:104400001B685B011B0DFA6902FB03F37B6154E03F
:104410003B68B3F1FF3F50D0FEF77EF80246BB6920
:10442000D31AFA699A4202D9FB69002B3DD1FB6885
:104430001B685A68FB681B6822F0E0025A60FB6840
:104440005B68B3F5827F11D1FB689B68B3F5004FC1
:1044500004D0FB689B68B3F5806F07D1FB681B68CD
:104460001A68FB681B6822F040021A60FB689B6AAE
:10447000B3F5005F0FD1FB681B681A68FB681B6807
:1044800022F400521A60FB681B681A68FB681B68FC
:1044900042F400521A60FB68012283F85120FB6845
:1044A000002283F85020032317E07B69002B01D101
:1044B0000023FB617B69013B7B61FB681B689A6899
:1044C000BB681340BA689A420CBF01230023DBB2D9
:1044D0001A46FB799A429BD1002318462037BD46E5
:1044E00080BD00BF0000002080B586B002AFF8603C
:1044F000B9607A607B680093BB6800228021F8680D
:10450000FFF76AFF0346002B07D0FB685B6D43F0A3
:104510002002FB685A65032300E000231846103789
:10452000BD4680BD80B582B000AF78607B68002B4F
:1045300001D1012341E07B6893F83D30DBB2002BD1
:1045400006D17B68002283F83C20786800F039F8B7
:104550007B68022283F83D207B681A687B680433FD
:104560001946104600F0B4F97B68012283F8462012
:104570007B68012283F83E207B68012283F83F207C
:104580007B68012283F840207B68012283F8412068
:104590007B68012283F842207B68012283F8432054
:1045A0007B68012283F844207B68012283F8452040
:1045B0007B68012283F83D20002318460837BD465A
:1045C00080BD80B483B000AF786000BF0C37BD46BB
:1045D00080BC704780B485B000AF78607B6893F88A
:1045E0003D30DBB2012B01D001233AE07B6802228F
:1045F00083F83D207B681B68DA687B681B6842F0A3
:104600000102DA607B681B68184A93420ED07B680F
:104610001B68B3F1804F09D07B681B68144A934232
:1046200004D07B681B68134A934211D17B681B68D6
:104630009B6803F00703FB60FB68062B10D07B68C8
:104640001B681A687B681B6842F001021A6007E069
:104650007B681B681A687B681B6842F001021A605D
:10466000002318461437BD4680BC7047002C01401B
:10467000000400400008004080B582B000AF7860C0
:104680007B681B681B6903F00203022B22D17B6845
:104690001B68DB6803F00203022B1BD17B681B68DD
:1046A0006FF002021A617B6801221A777B681B682F
:1046B0009B6903F00303002B03D0786800F0EDF84A
:1046C00005E0786800F0E0F8786800F0EFF87B68C3
:1046D00000221A777B681B681B6903F00403042B14
:1046E00022D17B681B68DB6803F00403042B1BD119
:1046F0007B681B686FF004021A617B6802221A77DC
:104700007B681B689B6903F44073002B03D07868B7
:1047100000F0C3F805E0786800F0B6F8786800F0BB
:10472000C5F87B6800221A777B681B681B6903F059
:104730000803082B22D17B681B68DB6803F00803A1
:10474000082B1BD17B681B686FF008021A617B681D
:1047500004221A777B681B68DB6903F00303002BD4
:1047600003D0786800F099F805E0786800F08CF8DC
:10477000786800F09BF87B6800221A777B681B68DA
:104780001B6903F01003102B22D17B681B68DB68C8
:1047900003F01003102B1BD17B681B686FF0100215
:1047A0001A617B6808221A777B681B68DB6903F44F
:1047B0004073002B03D0786800F06FF805E078684C
:1047C00000F062F8786800F071F87B6800221A77D0
:1047D0007B681B681B6903F00103012B0ED17B680A
:1047E0001B68DB6803F00103012B07D17B681B68A2
:1047F0006FF001021A617868FCF7F0FC7B681B68B7
:104800001B6903F08003802B0ED17B681B68DB687B
:1048100003F08003802B07D17B681B686FF0800258
:104820001A61786800F0BFF87B681B681B6903F0A9
:104830004003402B0ED17B681B68DB6803F040030C
:10484000402B07D17B681B686FF040021A617868C3
:1048500000F035F87B681B681B6903F02003202BF0
:104860000ED17B681B68DB6803F02003202B07D187
:104870007B681B686FF020021A61786800F08AF884
:1048800000BF0837BD4680BD80B483B000AF7860FC
:1048900000BF0C37BD4680BC704780B483B000AF0A
:1048A000786000BF0C37BD4680BC704780B483B0D1
:1048B00000AF786000BF0C37BD4680BC704780B445
:1048C00083B000AF786000BF0C37BD4680BC704736
:1048D00080B485B000AF786039607B681B68FB608E
:1048E0007B68294A93420BD07B68B3F1804F07D095
:1048F0007B68264A934203D07B68254A934208D1BD
:10490000FB6823F07003FB603B685B68FA68134345
:10491000FB607B681C4A93420BD07B68B3F1804FED
:1049200007D07B68194A934203D07B68184A9342A8
:1049300008D1FB6823F44073FB603B68DB68FA68CE
:104940001343FB60FB6823F080023B685B69134301
:10495000FB607B68FA681A603B689A687B68DA6279
:104960003B681A687B689A627B68074A934203D166
:104970003B681A697B681A637B6801225A6100BF31
:104980001437BD4680BC7047002C01400004004035
:104990000008004080B483B000AF786000BF0C37DF
:1049A000BD4680BC704780B483B000AF786000BF64
:1049B0000C37BD4680BC704780B582B000AF7860D0
:1049C0007B68002B01D101233FE07B6893F83D30E9
:1049D000DBB2002B06D17B68002283F83C2078688C
:1049E00000F016FE7B68242283F83D207B681B685C
:1049F000DA687B681B6822F40052DA60786800F09D
:104A000027FD7B681B681A697B681B6822F490424B
:104A10001A617B681B685A697B681B6822F02A024E
:104A20005A617B681B68DA687B681B6842F4005235
:104A3000DA607B6800221A647B68202283F83D20BC
:104A40007B68202283F83E20002318460837BD46A5
:104A500080BD80B58AB002AFF860B9603B60134694
:104A6000FB8000237B61FB6893F83D30DBB2202B99
:104A70007CD1BB68002B02D0FB88002B01D1012325
:104A800075E0FB6893F83C30012B01D102236EE006
:104A9000FB68012283F83C20FB6800221A64FB6853
:104AA000212283F83D20FDF737FD7861FB68FA8805
:104AB0009A84FB68FA88DA84FB689B68B3F5805FA8
:104AC00008D1FB681B69002B04D10023FB61BB6884
:104AD000BB6103E0BB68FB610023BB61FB68002294
:104AE00083F83C202AE03B6800937B690022802108
:104AF000F86800F0DAFA0346002B01D0032336E011
:104B0000FB69002B0BD1BB691B881A46FB681B682D
:104B1000C2F308025A60BB690233BB6107E0FB695C
:104B20001A78FB681B685A60FB690133FB61FB68FC
:104B3000DB8C9BB2013B9AB2FB68DA84FB68DB8CAE
:104B40009BB2002BCFD13B6800937B6900224021B0
:104B5000F86800F0AAFA0346002B01D0032306E010
:104B6000FB68202283F83D20002300E00223184642
:104B70002037BD4680BD80B58AB002AFF860B9600D
:104B80003B601346FB8000237B61FB6893F83E305B
:104B9000DBB2202B40F08C80BB68002B02D0FB885E
:104BA000002B01D1012384E0FB6893F83C30012BFA
:104BB00001D102237DE0FB68012283F83C20FB68E1
:104BC00000221A64FB68222283F83E20FB68002240
:104BD0001A63FDF7A1FC7861FB68FA889A85FB6887
:104BE000FA88DA85FB689B68B3F5805F08D1FB68BB
:104BF0001B69002B04D10023FB61BB68BB6103E090
:104C0000BB68FB610023BB61FB68002283F83C208A
:104C100043E03B6800937B6900222021F86800F0A4
:104C200044FA0346002B01D0032342E0FB69002B2A
:104C30000CD1FB681B685B689BB2C3F308039AB294
:104C4000BB691A80BB690233BB611FE0FB689B68CC
:104C5000B3F5805F07D0FB689B68002B0AD1FB6827
:104C60001B69002B06D1FB681B685B68DAB2FB6925
:104C70001A7008E0FB681B685B68DBB203F07F0317
:104C8000DAB2FB691A70FB690133FB61FB68DB8DEB
:104C90009BB2013B9AB2FB68DA85FB68DB8D9BB265
:104CA000002BB6D1FB68202283F83E20002300E0D1
:104CB000022318462037BD4680BD80B584B000AFC2
:104CC000F860B9601346FB80FB6893F83E30DBB2B6
:104CD000202B1DD1BB68002B02D0FB88002B01D1FB
:104CE000012316E0FB6893F83C30012B01D102232D
:104CF0000FE0FB68012283F83C20FB6800221A6366
:104D0000FB881A46B968F86800F019FA034600E013
:104D1000022318461037BD4680BD000080B58AB01A
:104D200000AF78607B681B681B687B627B681B68D0
:104D3000DB683B627B681B685B69FB610023BB61CE
:104D400000237B617B6A03F00F03BB61BB69002B0F
:104D50000DD17B6A03F02003002B08D03B6A03F0DF
:104D60002003002B03D0786800F0C9FA7BE1BB690F
:104D7000002B00F0B180FB6903F00103002B05D18B
:104D80003B6A03F49073002B00F0A6807B6A03F06B
:104D90000103002B0AD03B6A03F48073002B05D07B
:104DA0007B681B6C43F001027B681A647B6A03F02A
:104DB0000403002B0AD0FB6903F00103002B05D08C
:104DC0007B681B6C43F002027B681A647B6A03F009
:104DD0000203002B0AD0FB6903F00103002B05D06E
:104DE0007B681B6C43F004027B681A647B6A03F0E7
:104DF0000803002B0FD03B6A03F02003002B04D1E3
:104E0000FB6903F00103002B05D07B681B6C43F0AA
:104E100008027B681A647B681B6C002B00F01E8103
:104E20007B6A03F02003002B07D03B6A03F02003CA
:104E3000002B02D0786800F062FA7B681B685B691F
:104E400003F04003002B14BF01230023DBB27B617E
:104E50007B681B6C03F00803002B02D17B69002BDD
:104E600031D0786800F0A4F97B681B685B6903F0B7
:104E70004003002B23D07B681B685A697B681B6842
:104E800022F040025A617B689B6B002B13D07B6839
:104E90009B6B764A5A637B689B6B1846FDF784FCD4
:104EA0000346002B16D07B689B6B5B6B7A68926B1A
:104EB000104698470EE0786800F0E3F80AE078685A
:104EC00000F0DFF806E0786800F0DBF87B6800228D
:104ED0001A64C3E000BFC1E07B681B6B012B40F08C
:104EE000A1807B6A03F01003002B00F09B803B6ADB
:104EF00003F01003002B00F095800023FB607B681B
:104F00001B681B68FB607B681B685B68FB60FB6859
:104F10007B681B685B6903F04003002B4ED07B6805
:104F20009B6B1B685B683B823B8A002B00F0988080
:104F30007B689B8D3A8A9A4280F092807B683A8A9D
:104F4000DA857B689B6B9B69202B2BD07B681B6869
:104F5000DA687B681B6822F48072DA607B681B6801
:104F60005A697B681B6822F001025A617B681B68E2
:104F70005A697B681B6822F040025A617B682022D4
:104F800083F83E207B6800221A637B681B68DA681E
:104F90007B681B6822F01002DA607B689B6B184606
:104FA000FDF7C7FB7B689A8D7B68DB8D9BB2D31ABC
:104FB0009BB21946786800F06DF851E07B689A8DD5
:104FC0007B68DB8D9BB2D31A7B827B68DB8D9BB2C7
:104FD000002B47D07B8A002B44D07B681B68DA68A3
:104FE0007B681B6822F49072DA607B681B685A69E0
:104FF0007B681B6822F001025A617B68202283F8DB
:105000003E207B6800221A637B681B68DA687B6835
:105010001B6822F01002DA607B8A1946786800F07B
:1050200039F81FE07B6A03F08003002B08D03B6A4D
:1050300003F08003002B03D0786800F0F9F812E049
:105040007B6A03F04003002B0DD03B6A03F0400362
:10505000002B08D0786800F03AF904E000BF02E0C5
:1050600000BF00E000BF2837BD4680BD09520008E0
:1050700080B483B000AF786000BF0C37BD4680BC01
:10508000704780B483B000AF786000BF0C37BD4676
:1050900080BC704780B483B000AF78600B467B80E3
:1050A00000BF0C37BD4680BC704780B584B000AFF0
:1050B000F860B9603B601346FB712CE0BB69B3F14B
:1050C000FF3F28D0BB69002B07D0FDF725FA024629
:1050D0003B68D31ABA699A421DD2FB681B68DA682A
:1050E000FB681B6822F4D072DA60FB681B685A699F
:1050F000FB681B6822F001025A61FB68202283F8DA
:105100003D20FB68202283F83E20FB68002283F8C4
:105110003C2003230FE0FB681B681A68BB68134040
:10512000BA689A420CBF01230023DBB21A46FB790E
:105130009A42C3D0002318461037BD4680BD80B4C4
:1051400085B000AFF860B9601346FB80FB68BA68B1
:105150009A62FB68FA889A85FB68FA88DA85FB68A8
:1051600000221A64FB68222283F83E20FB6800229A
:1051700083F83C20FB681B68DA68FB681B6842F414
:105180008072DA60FB681B685A69FB681B6842F032
:1051900001025A61FB681B68DA68FB681B6842F011
:1051A0002002DA60002318461437BD4680BC7047E1
:1051B00080B483B000AF78607B681B68DA687B6876
:1051C0001B6822F49072DA607B681B685A697B68FE
:1051D0001B6822F001025A617B681B6B012B07D10F
:1051E0007B681B68DA687B681B6822F01002DA6053
:1051F0007B68202283F83E207B6800221A6300BF70
:105200000C37BD4680BC704780B584B000AF786075
:105210007B685B6AFB60FB680022DA85FB68002222
:10522000DA84F868FFF72DFF00BF1037BD4680BD58
:1052300080B485B000AF78607B6893F83D30DBB216
:10524000212B3ED17B689B68B3F5805F14D17B68CE
:105250001B69002B10D17B681B6AFB60FB681B88F5
:105260001A467B681B68C2F308025A607B681B6A97
:105270009A1C7B681A6208E07B681B6A591C7A6872
:1052800011621A787B681B685A607B68DB8C9BB262
:10529000013B9BB27A681946D184002B0FD17B6801
:1052A0001B68DA687B681B6822F08002DA607B6822
:1052B0001B68DA687B681B6842F04002DA600023F2
:1052C00000E0022318461437BD4680BC704780B505
:1052D00082B000AF78607B681B68DA687B681B6807
:1052E00022F04002DA607B68202283F83D20786853
:1052F000FFF7BEFE002318460837BD4680BD80B5C7
:1053000086B000AF78607B6893F83E30DBB2222B2A
:1053100040F099807B689B68B3F5805F17D17B680C
:105320001B69002B13D100237B617B689B6A3B6167
:105330007B681B685B689BB2C3F308039AB23B6946
:105340001A807B689B6A9A1C7B689A6226E07B685D
:105350009B6A7B6100233B617B689B68B3F5805F40
:1053600007D07B689B68002B0AD17B681B69002BE8
:1053700006D17B681B685B68DAB27B691A7008E04B
:105380007B681B685B68DBB203F07F03DAB27B6982
:105390001A707B689B6A5A1C7B689A627B68DB8DFB
:1053A0009BB2013B9BB27A681946D185002B48D14C
:1053B0007B681B68DA687B681B6822F02002DA6071
:1053C0007B681B68DA687B681B6822F48072DA608D
:1053D0007B681B685A697B681B6822F001025A616E
:1053E0007B68202283F83E207B681B6B012B23D136
:1053F0007B6800221A637B681B68DA687B681B681D
:1054000022F01002DA607B681B681B6803F010034F
:10541000102B0AD10023FB607B681B681B68FB60B4
:105420007B681B685B68FB60FB687B689B8D19462B
:105430007868FFF72FFE02E0786800F09BF9002300
:1054400002E0002300E0022318461837BD4680BD65
:1054500080B584B000AF78607B681B681B6923F45B
:1054600040517B68DA687B681B680A431A617B6875
:105470009A687B681B691A437B685B691343BB604E
:105480007B681B68DB6823F4B05323F00C037A6855
:105490001268B9680B43D3607B681B685B6923F4AF
:1054A00040717B689A697B681B680A435A617B6814
:1054B0001B682C4A934203D1FEF7CAFBF86002E056
:1054C000FEF7B2FBF860FA6813469B0013449A009B
:1054D0001A447B685B689B00B2FBF3F3224AA2FB91
:1054E00003235B091901FA6813469B0013449A00D1
:1054F0001A447B685B689B00B2FBF3F21A4BA3FB78
:1055000002035B09642000FB03F3D31A1B0132334F
:10551000154AA2FB03235B0903F0F0031944FA6860
:1055200013469B0013449A001A447B685B689B00F7
:10553000B2FBF3F20C4BA3FB02035B09642000FBFC
:1055400003F3D31A1B013233074AA2FB03235B097F
:1055500003F00F027B681B680A449A6000BF103793
:10556000BD4680BD003801401F85EB5180B483B03B
:1055700000AF0346FB80FB88034A136000BF0C3773
:10558000BD4680BC704700BF9004002080B582B04B
:1055900000AF7860391D4FF0FF3301220348FFF759
:1055A00058FA7B6818460837BD4680BD6405002060
:1055B00080B500AF134B144A1A60124B4FF4E1321E
:1055C0005A60104B00229A600E4B0022DA600D4B9D
:1055D00000221A610B4B0C225A610A4B00229A617D
:1055E000084B0022DA610748FFF7E6F90346002B73
:1055F00001D0FBF705FE012204490248FFF75DFBDD
:1056000000BF80BD64050020003801406005002017
:1056100080B58CB000AF78607B681B68514A9342BC
:1056200046D1514B9B69504A43F0040393614E4B62
:105630009B6903F00403FB61FB694B4B9B694A4A7E
:1056400043F004039361484B9B6903F00403BB617F
:10565000BB69454B9B69444A43F480439361424B89
:105660009B6903F480437B617B694FF400733B6269
:1056700002237B620123BB620323FB6207F1200349
:1056800019463A48FDF706F94FF480633B62002360
:105690007B6207F1200319463448FDF7FBF800222E
:1056A00005212520FDF71BF82520FDF734F854E0EF
:1056B0007B681B682E4A93424FD12B4B9B692A4A29
:1056C00043F004039361284B9B6903F004033B619F
:1056D0003B69254B9B69244A43F004039361224BA9
:1056E0009B6903F00403FB60FB681F4BDB691E4AE8
:1056F00043F40033D3611C4BDB6903F40033BB601C
:10570000BB6804233B6202237B620023BB6203234A
:10571000FB6207F1200319461448FDF7BBF8082384
:105720003B6200237B620023BB620323FB6207F121
:10573000200319460D48FDF7ADF800220021262070
:10574000FCF7CDFF2620FCF7E6FF7B681B68DA68D4
:105750007B681B6842F02002DA6000BF3037BD462C
:1057600080BD00BF00380140001002400008014029
:105770000044004080B582B000AF78607B681B6851
:10578000244A934242D1244B1B881BB2002B38DBA6
:10579000214B1B8803F48043002B11D01F4B1B7837
:1057A0000A2B03D01C4B00221A802AE01A4B1B88BC
:1057B0006FEA43436FEA53439AB2174B1A8020E0D3
:1057C000164B1B780D2B07D1134B1B8843F48043DA
:1057D0009AB2114B1A8014E00F4B1B88C3F30D03D0
:1057E0000E4A11780E4AD1540B4B1B8801339AB2E2
:1057F000094B1A80084B1B88C72B02D9064B002285
:105800001A80012205490748FFF757FA00BF0837F9
:10581000BD4680BD003801405C05002060050020C9
:10582000940400206405002080B582B000AFC82039
:10583000FCF77CFE0023FB710023FB7108E0FB7981
:10584000074AD35C184600F00DF8FB790133FB7171
:10585000FB79162BF3D900BF00BF0837BD4680BDCA
:105860001800002080B586B004AF0346FB714FF4EA
:105870008073029301230193FB1D009301230022F7
:1058800078210348FDF7E6FA00BF0837BD4680BD22
:10589000C002002080B586B004AF0346FB714FF410
:1058A0008073029301230193FB1D00930123402287
:1058B00078210348FDF7CEFA00BF0837BD4680BD0A
:1058C000C002002080B582B000AF0023FB711BE056
:1058D000FB79503BDBB21846FFF7C4FF0020FFF70F
:1058E000C1FF1020FFF7BEFF0023BB7105E00020C1
:1058F000FFF7D0FFBB790133BB7197F90630002B5E
:10590000F5DAFB790133FB71FB79072BE0D900BF96
:1059100000BF0837BD4680BD80B582B000AF0346EA
:105920000A46FB711346BB71BB79503BDBB218468C
:10593000FFF798FFFB791B09DBB243F01003DBB2E2
:105940001846FFF78FFFFB7903F00F03DBB2184611
:10595000FFF788FF00BF0837BD4680BD90B585B012
:1059600000AF0446084611461A462346FB7103461B
:10597000BB710B467B7113463B710023BB73002345
:10598000FB737B79203BBB7397F90730002B04DA5C
:105990000023FB71BB790233BB713B79102B54D1CF
:1059A000BA79FB7911461846FFF7B6FF0023FB735F
:1059B0001BE097F82030002B0BD0BB7B1A01FB7B40
:1059C00013443C4AD35CDB43DBB21846FFF762FF6B
:1059D00008E0BB7B1A01FB7B1344364AD35C1846B4
:1059E000FFF758FFFB7B0133FB73FB7B072BE0D9F1
:1059F000BB790133DAB2FB7911461846FFF78CFF09
:105A00000023FB731DE097F82030002B0CD0BB7BEC
:105A10001A01FB7B13440833264AD35CDB43DBB219
:105A20001846FFF737FF09E0BB7B1A01FB7B1344E5
:105A30000833204AD35C1846FFF72CFFFB7B013369
:105A4000FB73FB7B072BDED92FE0BA79FB7911467C
:105A50001846FFF761FF0023FB7323E097F820301F
:105A6000002B0FD0BA7BF97B134813465B0013441D
:105A70005B0003440B441B78DB43DBB21846FFF7A3
:105A800009FF0CE0BA7BF97B0B4813465B0013441B
:105A90005B0003440B441B781846FFF7FBFEFB7BBF
:105AA0000133FB73FB7B052BD8D900BF1437BD46F0
:105AB00090BD00BF74DF00084CDD000890B587B0D2
:105AC00002AF3A601A460346FB710B46BB711346A0
:105AD0007B710023FB732FE0FB7B3A6813441A7839
